:100000000C9434000C9446000C9446000C9446006A
:100010000C9446000C9446000C9446000C94460048
:100020000C9446000C9446000C9446000C94460038
:100030000C9446000C9446000C9446000C94460028
:100040000C9446000C9446000C9446000C94460018
:100050000C9446000C9446000C9446000C94460008
:100060000C9446000C94460011241FBECFEFD8E03C
:10007000DEBFCDBF21E0A0E0B1E001C01D92A33002
:10008000B207E1F70E9488000C94A9000C940000CC
:1000900091E890937A008295880F880F807C806227
:1000A00080937C0081E0809301010895909101018B
:1000B000992381F090917C00907F8F70892B8093A1
:1000C0007C0080917A00806480937A0080917A002D
:1000D00090917900892F089580910101882389F0FA
:1000E00080917A00806480937A0080917A00809178
:1000F00078009091790026E0969587952A95E1F70A
:10010000089580E090E0089580E0089580E00895EB
:100110008FB780688FBF8FEF8AB981E090E00E942F
:10012000480080917E008F6080937E00C1E0D0E027
:1001300080E090E00E9456008093020182958695AF
:1001400087709E0102C0220F331F8A95E2F72BB9F8
:06015000EFCFF894FFCF91
:00000001FF
